:020000040800F2
:1000000078060020350200083D0200083F02000883
:1000100041020008430200084502000800000000F9
:10002000000000000000000000000000470200087F
:1000300049020008000000004B0200084D020008C1
:100040004F0200084F0200084F0200084F0200084C
:100050004F0200084F020008F102000839030008AF
:10006000750300084F0200084F0200084F02000805
:100070004F0200084F0200084F0200084F0200081C
:100080004F0200084F0200084F0200080000000065
:100090000000000000000000000000004F02000807
:1000A0004F0200084F0200084F0200084F020008EC
:1000B00069050008810500084F0200084F0200088A
:1000C0004F0200084F0200084F0200084F020008CC
:1000D0004F0200084F0200084F0200080000000015
:1000E0004F0200084F0200084F0200080000000005
:1000F0000000000000000000000000004F020008A7
:10010000000000004F0200084F0200084F020008E4
:1001100000000000000000000000000000000000DF
:100120004F0200084F0200084F0200084F0200086B
:100130004F02000800000000000000000000000066
:100140000000000000000000000000004F02000856
:100150004F0200084F0200084F0200084F0200083B
:100160004F0200084F0200080000000000000000DD
:10017000000000000000000000000000000000007F
:10018000000000004F020008000000000000000016
:100190004F02000800F002F800F03CF80AA090E8D6
:1001A000000C82448344AAF10107DA4501D100F032
:1001B00031F8AFF2090EBAE80F0013F0010F18BFC3
:1001C000FB1A43F001031847C8080000E8080000C4
:1001D000103A24BF78C878C1FAD8520724BF30C873
:1001E00030C144BF04680C60704700000023002445
:1001F00000250026103A28BF78C1FBD8520728BF37
:1002000030C148BF0B6070471FB500F033FC1FBD05
:1002100010B510BD00F031F81146FFF7F5FF00F002
:1002200077FB00F04FF803B4FFF7F2FF03BC00F0D8
:1002300057F800000948804709480047FEE7FEE7F5
:10024000FEE7FEE7FEE7FEE7FEE7FEE7FEE7FEE786
:1002500004480549054A064B70470000550500084B
:100260009501000878000020780600207802002020
:1002700078020020704770477047754600F02CF8F0
:10028000AE4605006946534620F00700854618B083
:1002900020B5FFF7DDFFBDE820404FF000064FF02E
:1002A00000074FF000084FF0000BAC46ACE8C00967
:1002B000ACE8C009ACE8C009ACE8C00921F007010E
:1002C0008D46704710B50446AFF300802046BDE868
:1002D0001040FFF7A8BF000000487047080000204A
:1002E00001491820ABBEFEE726000200704700005F
:1002F00010B543F60044C4F2010400F0D9F9606976
:1003000040F001006061206820F0010020600620BC
:1003100000F054F940F20000C2F20000016829B177
:100320000021016000F0BEF800F0CAF9206840F03A
:100330000100206010BD000010B500F0B3F943F6D5
:100340000044C4F20104606940F00200606120686A
:1003500020F002002060062000F030F940F200009A
:10036000C2F2000002210160206840F0020020601B
:1003700010BD000070B54EF2100540F2104643F675
:100380000044CEF20005C4F20206C4F2010400F0FB
:1003900089F900F08DF9606940F00400606120681F
:1003A00020F004002060062000F008F94FF47A5095
:1003B000686000200521A8602960326840F27A3C1C
:1003C00002F0040203E000BF0130604514D0296050
:1003D00001E000BF4BB12B68DB03F5D43368002A82
:1003E00003F00403F6D1002BF5D000F023FB2068C6
:1003F00040F00400206070BD00F02EFBF7E7000025
:10040000B0B51425C4F2020528600446286820F41B
:1004100080602860286820F400702860286840F414
:1004200080702860002000F021F92868042C20F456
:10043000807028604FF0010038BF022000F016F9EC
:10044000B0BD000080B53820FFF7DAFF012000F0D2
:100450000DF90620FFF7D4FF012000F007F908206E
:10046000FFF7CEFF012000F001F90C20FFF7C8FFD5
:10047000012000F0FBF880BD1421C4F202010860E5
:10048000086840F480600860086820F40070086024
:10049000086840F480700860086820F48070086084
:1004A00070470000B0B5C020FFF7AAFF012000F0A0
:1004B000DDF840F268054FF0FF34C2F2000500BFDE
:1004C00028194078FFF7D8FF012000F0CFF8013459
:1004D000082CF5D1B0BD000080B50120FFF790FFDA
:1004E0000A2000F0C3F83820FFF78AFF0A2000F046
:1004F000BDF85720FFF7C0FF012000F0B7F86520D6
:10050000FFF7BAFF012000F0B1F86C20FFF7B4FF4D
:10051000012000F0ABF86320FFF7AEFF012000F0F0
:10052000A5F86F20FFF7A8FF012000F09FF86D20CD
:10053000FFF7A2FF012000F099F86520FFF79CFF6C
:10054000012000F093F8C020FFF75AFF0A2000F0C6
:100550008DF880BD4EF68850CEF20000016841F45F
:10056000700101607047000080B51020C4F20000E7
:100570000021016008200D2100F0D8F880BD0000A6
:1005800010B540F21040C4F200000021016000F0FC
:1005900089F840F20004C2F200042068411C08D02F
:1005A000012818BF10BD00F029F84FF0FF3020607F
:1005B00010BD00F0B1F90120206010BD00F01F0057
:1005C000012101FA00F04EF28021CEF20001086014
:1005D0007047000000F01F00012101FA00F04EF208
:1005E0000011CEF20001086070470000E421C0F263
:1005F000E00161F31F2000210170704780B5C02029
:10060000FFF7FEFE012000F031F82020FFF734FF55
:10061000012000F02BF82020FFF72EFF012000F032
:1006200025F82020FFF728FF012000F01FF82020E8
:10063000FFF722FF012000F019F82020FFF71CFF30
:10064000012000F013F82020FFF716FF012000F032
:100650000DF82020FFF710FF012000F007F8202000
:10066000FFF70AFF012000F001F880BD4EF21001F3
:10067000CEF200014FF4C8624A6000224FF0050C30
:1006800001288A60C1F800C0B8BF7047002300BFCE
:10069000C1F800C00A68D203FCD501338342F7D108
:1006A000704700004FF0804000210160704700005B
:1006B00040F20040C4F200000021016070470000D9
:1006C0004FF08040012101607047000040F200407F
:1006D000C4F20000012101607047000009280AD817
:1006E00001463020DFE801F00805090B0D0F11135A
:1006F000171531207047262070473220704733206D
:1007000070473420704735207047362070473720B7
:100710007047392070473820704700003038C0B229
:10072000092884BF4FF0FF3070477047F0B581B0A3
:10073000044610200D46FFF763FE0120FFF796FFE9
:100740000120FFF793FF0120FFF790FF0120FFF743
:100750008DFF0120FFF78AFF052C01D0022C0CD160
:10076000601E2946FFF7E2FF01253A20FFF784FECD
:100770002846FFF77BFF01B0F0BD40F26807C2F2E8
:100780000007385DFFF7CAFF032C054408BF062D9C
:100790003BD00A2D46DB46F26761C6F2666155FB27
:1007A00001F18A1002EBD176601E3146FFF7BEFFE1
:1007B0000020FFF75BFF0020FFF758FF0020FFF746
:1007C00055FF0020FFF752FF0020FFF74FFF0020EA
:1007D000FFF74CFF0020FFF749FF0020FFF746FF1F
:1007E0000020FFF743FF0020FFF740FF0020FFF746
:1007F0003DFF0020FFF73AFF06EB8600A5EB400027
:10080000FFF76CFF38550125B0E7022001210125D3
:10081000FFF78CFF0120FFF729FF0020FFF75EFFA5
:100820003855A3E72846FFF759FF022538559DE7BD
:1008300010B543F63004C4F20204206845F2555165
:1008400040F0010020602068C0F2150140F0020075
:1008500020600020C4F2020001600021C0F80014F2
:1008600040F20C40C4F202002A210160FFF7EAFDC9
:100870000A20FFF7FBFEFFF72FFE606940F480407F
:10088000606100F099F800F0B7F843F60800C4F290
:100890000100016841F001010160016841F01001AF
:1008A0000160016841F480710160D0F8F81341F0F3
:1008B0000701C0F8F81343F60C41C4F201010A68BD
:1008C00042F007020A60D0F8001441F00401C0F8B9
:1008D000001462B60620FFF789FE0720FFF786FEA8
:1008E0000820FFF783FE0620FFF768FE0720FFF7CA
:1008F00065FE0820FFF762FE0620FFF76BFE07206B
:10090000FFF768FE0820FFF765FE00F043F810BD12
:10091000FFF78EFFFEE7000080B5C020FFF770FDF7
:100920000120FFF7A3FE5420FFF7A6FD0120FFF7EB
:100930009DFE7520FFF7A0FD0120FFF797FE7220B6
:10094000FFF79AFD0120FFF791FE6E20FFF794FD5F
:100950000120FFF78BFE2020FFF78EFD0120FFF71F
:1009600085FE4F20FFF788FD0120FFF77FFE662000
:10097000FFF782FD0120FFF779FE6620FFF77CFD7F
:100980000120FFF773FE2020FFF776FD0120FFF71F
:100990006DFE80BD40F2680043F23001C2F20000FB
:1009A000C3F23A01016043F63021C3F230014160E5
:1009B000302101727047000080B543F64000C4F258
:1009C00002000168002241F0010101600C2042F2A6
:1009D000FF31C4F20000C0F2F401C16102210162E2
:1009E0004FF080410A60016841F0010101601C2064
:1009F000FFF7F0FD80BD000080B543F64000C4F273
:100A00000200016841F00201016040F20C40C4F2B2
:100A1000000040F2CF71C16140F2E7310162002174
:100A200040F80C1C016841F0010101601D20FFF736
:100A3000D1FD80BD80B540F20000C2F200006FF031
:100A400001010160FFF72EFEFFF732FEFFF7A2FF64
:100A5000FFF728FD80BD000080B5FFF75DFFFFF7C1
:100A600099FF40F20000C2F2000001210160FFF78F
:100A70002DFE80BDF1EE100A4FF6FF71C0F2C031BD
:100A800020EA010040F04070E1EE100A70470000DB
:100A9000B00A00080000002004000000D001000897
:100AA000B40A00080800002070060000EC010008ED
:040AB000FEFFFFFF47
:0400000508000235B8
:00000001FF
